{
  "_format": "hh-sol-artifact-1",
  "contractName": "PredictionMarket",
  "sourceName": "contracts/PredictionMarket.sol",
  "abi": [
    {
      "inputs": [
        {
          "internalType": "address",
          "name": "_aiResolver",
          "type": "address"
        }
      ],
      "stateMutability": "nonpayable",
      "type": "constructor"
    },
    {
      "inputs": [],
      "name": "AlreadyClaimed",
      "type": "error"
    },
    {
      "inputs": [],
      "name": "AmountZero",
      "type": "error"
    },
    {
      "inputs": [],
      "name": "DeadlineInPast",
      "type": "error"
    },
    {
      "inputs": [],
      "name": "InvalidAiResolver",
      "type": "error"
    },
    {
      "inputs": [],
      "name": "InvalidMarket",
      "type": "error"
    },
    {
      "inputs": [],
      "name": "InvalidProbability",
      "type": "error"
    },
    {
      "inputs": [],
      "name": "MarketClosed",
      "type": "error"
    },
    {
      "inputs": [],
      "name": "MarketNotClosed",
      "type": "error"
    },
    {
      "inputs": [],
      "name": "MarketNotOpen",
      "type": "error"
    },
    {
      "inputs": [],
      "name": "MarketNotResolved",
      "type": "error"
    },
    {
      "inputs": [],
      "name": "MarketResolvedAlready",
      "type": "error"
    },
    {
      "inputs": [],
      "name": "NoOpenPosition",
      "type": "error"
    },
    {
      "inputs": [],
      "name": "NoWinners",
      "type": "error"
    },
    {
      "inputs": [],
      "name": "NoWinningPosition",
      "type": "error"
    },
    {
      "inputs": [],
      "name": "NotAiResolver",
      "type": "error"
    },
    {
      "inputs": [],
      "name": "NotMarketCreator",
      "type": "error"
    },
    {
      "inputs": [],
      "name": "TransferFailed",
      "type": "error"
    },
    {
      "anonymous": false,
      "inputs": [
        {
          "indexed": true,
          "internalType": "uint256",
          "name": "marketId",
          "type": "uint256"
        },
        {
          "indexed": true,
          "internalType": "address",
          "name": "user",
          "type": "address"
        },
        {
          "indexed": true,
          "internalType": "bool",
          "name": "isYes",
          "type": "bool"
        },
        {
          "indexed": false,
          "internalType": "uint256",
          "name": "amount",
          "type": "uint256"
        }
      ],
      "name": "BetPlaced",
      "type": "event"
    },
    {
      "anonymous": false,
      "inputs": [
        {
          "indexed": true,
          "internalType": "uint256",
          "name": "marketId",
          "type": "uint256"
        },
        {
          "indexed": true,
          "internalType": "address",
          "name": "creator",
          "type": "address"
        },
        {
          "indexed": false,
          "internalType": "string",
          "name": "title",
          "type": "string"
        },
        {
          "indexed": false,
          "internalType": "uint256",
          "name": "deadline",
          "type": "uint256"
        },
        {
          "indexed": false,
          "internalType": "uint256",
          "name": "aiProbability",
          "type": "uint256"
        },
        {
          "indexed": false,
          "internalType": "uint256",
          "name": "initialLiquidity",
          "type": "uint256"
        }
      ],
      "name": "MarketCreated",
      "type": "event"
    },
    {
      "anonymous": false,
      "inputs": [
        {
          "indexed": true,
          "internalType": "uint256",
          "name": "marketId",
          "type": "uint256"
        },
        {
          "indexed": false,
          "internalType": "enum PredictionMarket.Outcome",
          "name": "outcome",
          "type": "uint8"
        }
      ],
      "name": "MarketResolved",
      "type": "event"
    },
    {
      "anonymous": false,
      "inputs": [
        {
          "indexed": true,
          "internalType": "uint256",
          "name": "marketId",
          "type": "uint256"
        },
        {
          "indexed": true,
          "internalType": "address",
          "name": "creator",
          "type": "address"
        },
        {
          "indexed": false,
          "internalType": "uint256",
          "name": "amount",
          "type": "uint256"
        }
      ],
      "name": "NoWinnerPoolWithdrawn",
      "type": "event"
    },
    {
      "anonymous": false,
      "inputs": [
        {
          "indexed": true,
          "internalType": "uint256",
          "name": "marketId",
          "type": "uint256"
        },
        {
          "indexed": true,
          "internalType": "address",
          "name": "user",
          "type": "address"
        },
        {
          "indexed": false,
          "internalType": "uint256",
          "name": "payout",
          "type": "uint256"
        }
      ],
      "name": "PayoutClaimed",
      "type": "event"
    },
    {
      "anonymous": false,
      "inputs": [
        {
          "indexed": true,
          "internalType": "uint256",
          "name": "marketId",
          "type": "uint256"
        },
        {
          "indexed": true,
          "internalType": "address",
          "name": "user",
          "type": "address"
        },
        {
          "indexed": false,
          "internalType": "uint256",
          "name": "amount",
          "type": "uint256"
        }
      ],
      "name": "PositionWithdrawn",
      "type": "event"
    },
    {
      "inputs": [],
      "name": "USDC",
      "outputs": [
        {
          "internalType": "contract IERC20",
          "name": "",
          "type": "address"
        }
      ],
      "stateMutability": "view",
      "type": "function"
    },
    {
      "inputs": [],
      "name": "aiResolver",
      "outputs": [
        {
          "internalType": "address",
          "name": "",
          "type": "address"
        }
      ],
      "stateMutability": "view",
      "type": "function"
    },
    {
      "inputs": [
        {
          "internalType": "uint256",
          "name": "marketId",
          "type": "uint256"
        },
        {
          "internalType": "uint256",
          "name": "amount",
          "type": "uint256"
        }
      ],
      "name": "betNo",
      "outputs": [],
      "stateMutability": "nonpayable",
      "type": "function"
    },
    {
      "inputs": [
        {
          "internalType": "uint256",
          "name": "marketId",
          "type": "uint256"
        },
        {
          "internalType": "uint256",
          "name": "amount",
          "type": "uint256"
        }
      ],
      "name": "betYes",
      "outputs": [],
      "stateMutability": "nonpayable",
      "type": "function"
    },
    {
      "inputs": [
        {
          "internalType": "uint256",
          "name": "marketId",
          "type": "uint256"
        }
      ],
      "name": "claimPayout",
      "outputs": [
        {
          "internalType": "uint256",
          "name": "payout",
          "type": "uint256"
        }
      ],
      "stateMutability": "nonpayable",
      "type": "function"
    },
    {
      "inputs": [
        {
          "internalType": "string",
          "name": "title",
          "type": "string"
        },
        {
          "internalType": "string",
          "name": "description",
          "type": "string"
        },
        {
          "internalType": "string",
          "name": "resolutionCriteria",
          "type": "string"
        },
        {
          "internalType": "uint256",
          "name": "deadline",
          "type": "uint256"
        },
        {
          "internalType": "uint256",
          "name": "initialLiquidity",
          "type": "uint256"
        },
        {
          "internalType": "uint256",
          "name": "aiProbability",
          "type": "uint256"
        },
        {
          "internalType": "string",
          "name": "category",
          "type": "string"
        },
        {
          "internalType": "string",
          "name": "triggeredByNews",
          "type": "string"
        }
      ],
      "name": "createMarket",
      "outputs": [
        {
          "internalType": "uint256",
          "name": "marketId",
          "type": "uint256"
        }
      ],
      "stateMutability": "nonpayable",
      "type": "function"
    },
    {
      "inputs": [
        {
          "internalType": "uint256",
          "name": "",
          "type": "uint256"
        }
      ],
      "name": "creatorSeedNo",
      "outputs": [
        {
          "internalType": "uint256",
          "name": "",
          "type": "uint256"
        }
      ],
      "stateMutability": "view",
      "type": "function"
    },
    {
      "inputs": [
        {
          "internalType": "uint256",
          "name": "",
          "type": "uint256"
        }
      ],
      "name": "creatorSeedYes",
      "outputs": [
        {
          "internalType": "uint256",
          "name": "",
          "type": "uint256"
        }
      ],
      "stateMutability": "view",
      "type": "function"
    },
    {
      "inputs": [
        {
          "internalType": "uint256",
          "name": "marketId",
          "type": "uint256"
        },
        {
          "internalType": "address",
          "name": "user",
          "type": "address"
        }
      ],
      "name": "getPosition",
      "outputs": [
        {
          "internalType": "uint256",
          "name": "yesAmount",
          "type": "uint256"
        },
        {
          "internalType": "uint256",
          "name": "noAmount",
          "type": "uint256"
        },
        {
          "internalType": "bool",
          "name": "claimed",
          "type": "bool"
        }
      ],
      "stateMutability": "view",
      "type": "function"
    },
    {
      "inputs": [],
      "name": "marketCount",
      "outputs": [
        {
          "internalType": "uint256",
          "name": "",
          "type": "uint256"
        }
      ],
      "stateMutability": "view",
      "type": "function"
    },
    {
      "inputs": [
        {
          "internalType": "uint256",
          "name": "",
          "type": "uint256"
        }
      ],
      "name": "markets",
      "outputs": [
        {
          "internalType": "address",
          "name": "creator",
          "type": "address"
        },
        {
          "internalType": "string",
          "name": "title",
          "type": "string"
        },
        {
          "internalType": "string",
          "name": "description",
          "type": "string"
        },
        {
          "internalType": "string",
          "name": "resolutionCriteria",
          "type": "string"
        },
        {
          "internalType": "uint256",
          "name": "deadline",
          "type": "uint256"
        },
        {
          "internalType": "uint256",
          "name": "aiProbability",
          "type": "uint256"
        },
        {
          "internalType": "string",
          "name": "category",
          "type": "string"
        },
        {
          "internalType": "string",
          "name": "triggeredByNews",
          "type": "string"
        },
        {
          "internalType": "uint256",
          "name": "totalYes",
          "type": "uint256"
        },
        {
          "internalType": "uint256",
          "name": "totalNo",
          "type": "uint256"
        },
        {
          "internalType": "uint256",
          "name": "liquidity",
          "type": "uint256"
        },
        {
          "internalType": "uint256",
          "name": "pool",
          "type": "uint256"
        },
        {
          "internalType": "enum PredictionMarket.Outcome",
          "name": "outcome",
          "type": "uint8"
        },
        {
          "internalType": "bool",
          "name": "resolved",
          "type": "bool"
        }
      ],
      "stateMutability": "view",
      "type": "function"
    },
    {
      "inputs": [
        {
          "internalType": "uint256",
          "name": "",
          "type": "uint256"
        },
        {
          "internalType": "address",
          "name": "",
          "type": "address"
        }
      ],
      "name": "positions",
      "outputs": [
        {
          "internalType": "uint256",
          "name": "yesAmount",
          "type": "uint256"
        },
        {
          "internalType": "uint256",
          "name": "noAmount",
          "type": "uint256"
        },
        {
          "internalType": "bool",
          "name": "claimed",
          "type": "bool"
        }
      ],
      "stateMutability": "view",
      "type": "function"
    },
    {
      "inputs": [
        {
          "internalType": "uint256",
          "name": "marketId",
          "type": "uint256"
        },
        {
          "internalType": "bool",
          "name": "isYes",
          "type": "bool"
        },
        {
          "internalType": "uint256",
          "name": "amount",
          "type": "uint256"
        }
      ],
      "name": "quoteBetPayout",
      "outputs": [
        {
          "internalType": "uint256",
          "name": "payout",
          "type": "uint256"
        }
      ],
      "stateMutability": "view",
      "type": "function"
    },
    {
      "inputs": [
        {
          "internalType": "uint256",
          "name": "marketId",
          "type": "uint256"
        },
        {
          "internalType": "address",
          "name": "user",
          "type": "address"
        }
      ],
      "name": "quotePayout",
      "outputs": [
        {
          "internalType": "uint256",
          "name": "payout",
          "type": "uint256"
        }
      ],
      "stateMutability": "view",
      "type": "function"
    },
    {
      "inputs": [
        {
          "internalType": "uint256",
          "name": "marketId",
          "type": "uint256"
        },
        {
          "internalType": "bool",
          "name": "yesWon",
          "type": "bool"
        }
      ],
      "name": "resolveMarket",
      "outputs": [],
      "stateMutability": "nonpayable",
      "type": "function"
    },
    {
      "inputs": [
        {
          "internalType": "uint256",
          "name": "marketId",
          "type": "uint256"
        }
      ],
      "name": "withdrawNoWinnerPool",
      "outputs": [
        {
          "internalType": "uint256",
          "name": "amount",
          "type": "uint256"
        }
      ],
      "stateMutability": "nonpayable",
      "type": "function"
    },
    {
      "inputs": [
        {
          "internalType": "uint256",
          "name": "marketId",
          "type": "uint256"
        }
      ],
      "name": "withdrawPosition",
      "outputs": [
        {
          "internalType": "uint256",
          "name": "amount",
          "type": "uint256"
        }
      ],
      "stateMutability": "nonpayable",
      "type": "function"
    }
  ],
  "bytecode": "0x60a034608157601f61188938819003918201601f19168301916001600160401b03831184841017608557808492602094604052833981010312608157516001600160a01b038116808203608157156072576080526040516117ef908161009a82396080518181816101610152610f0b0152f35b63a35edec760e01b5f5260045ffd5b5f80fd5b634e487b7160e01b5f52604160045260245ffdfe60806040526004361015610011575f80fd5b5f3560e01c8063174a5d32146112ae57806317f8722f1461128457806322a18d42146111b357806325f4647f14611192578063525c12ea14610fd157806357bde44614610ed0578063679f991414610e1057806381f3580614610de657806389a3027114610dc75780638a69614e14610c5557806395b0c5c0146102fa578063b1283e77146101ba578063d29f541d146100f4578063d56f892414610190578063e354ea781461014c578063e684d718146100f45763ec979082146100d4575f80fd5b346100f0575f3660031901126100f05760205f54604051908152f35b5f80fd5b346100f0576101023661134a565b5f9182526002602081815260408085206001600160a01b039490941685529281529282902080546001820154919092015483519283529382015260ff909216151590820152606090f35b346100f0575f3660031901126100f0576040517f00000000000000000000000000000000000000000000000000000000000000006001600160a01b03168152602090f35b346100f05760203660031901126100f0576004355f526003602052602060405f2054604051908152f35b346100f05760203660031901126100f0576004355f52600160205260405f20600160a01b60019003815416600182016101f2906113f6565b916101ff600282016113f6565b61020b600383016113f6565b91600481015492600582015460068301610224906113f6565b610230600785016113f6565b90600885015496600986015493600a87015495600b88015497600c0154986040519c8d9c8d5260208d016101c090526101c08d0161026d91611496565b8c810360408e015261027e91611496565b8b810360608d015261028f91611496565b9160808b015260a08a015288810360c08a01526102ab91611496565b87810360e08901526102bc91611496565b94610100870152610120860152610140850152610160840152610180830160ff8216906102e8916114ba565b60081c60ff1615156101a08301520390f35b346100f0576101003660031901126100f0576004356001600160401b0381116100f05761032b903690600401611370565b906024356001600160401b0381116100f05761034b903690600401611370565b9290916044356001600160401b0381116100f05761036d903690600401611370565b9060c4356001600160401b0381116100f05761038d903690600401611370565b60e4969196356001600160401b0381116100f0576103af903690600401611370565b97909160843515610c4657426064351115610c3757606460a43511610c28575f549860018a01808b11610c14575f556103ef60843560011c608435611630565b9a60405195866101c08101106001600160401b036101c089011117610809578b9761044061044f92610484946104348f8f906101c08e016040528d3390523691611655565b60208c01523691611655565b99604089019a8b523691611655565b94606087019586526104756080880195606435875260a089019560a43587523691611655565b9260c088019384523691611655565b60e0860190815261010086019160843560011c83526101208701938d8552610140880195608435875261016089019760843589526101808a019b5f8d526101a08b019b5f8d525f52600160205260405f209a60018060a01b038151166bffffffffffffffffffffffff60a01b8d5416178c55602060018d019101518051906001600160401b03821161080957819061051c845461139d565b601f8111610bbb575b50602090601f8311600114610b58575f92610b4d575b50508160011b915f199060031b1c19161790555b51805160028c01916001600160401b038211610809578190610571845461139d565b601f8111610af4575b50602090601f8311600114610a91575f92610a86575b50508160011b915f199060031b1c19161790555b51805160038b01916001600160401b0382116108095781906105c6845461139d565b601f8111610a2d575b50602090601f83116001146109ca575f926109bf575b50508160011b915f199060031b1c19161790555b51600489015551600588015551805160068801916001600160401b038211610809578190610627845461139d565b601f8111610966575b50602090601f8311600114610903575f926108f8575b50508160011b915f199060031b1c19161790555b51805160078701916001600160401b0382116108095761067a835461139d565b601f81116108a7575b50602090601f831160011461083c57600c98979695949392915f9183610831575b50508160011b915f199060031b1c19161790555b51600885015551600984015551600a83015551600b820155019151600381101561081d576106e6908361163d565b51151561ff0082549160081b169061ff001916179055825f52600360205260843560011c60405f2055825f5260046020528360405f205560405160608101918183106001600160401b038411176108095760209560027f4a7d407b15f60472268a43a4f0fc258be19105b8967dd8123b49b25ade8d012893879560405260843560011c815288810192835260408101925f8452865f52828a5260405f2060018060a01b0333165f528a5260405f2091518255516001820155019051151560ff801983541691161790556107bc608435303361176a565b83604051916080835281608084015260a08301375f60a085830101526064358682015260a4356040820152608435606082015260a0813395601f80199101168101030190a3604051908152f35b634e487b7160e01b5f52604160045260245ffd5b634e487b7160e01b5f52602160045260245ffd5b015190508f806106a4565b90601f19831691845f52815f20925f5b81811061088f5750916001939185600c9c9b9a999897969410610877575b505050811b0190556106b8565b01515f1960f88460031b161c191690558f808061086a565b9293602060018192878601518155019501930161084c565b8281111561068357835f5260205f20601f840160051c90602085106108f0575b81601f9101920160051c03905f5b8281106108e3575050610683565b5f828201556001016108d5565b5f91506108c7565b015190508f80610646565b5f8581528281209350601f198516905b81811061094e5750908460019594939210610936575b505050811b01905561065a565b01515f1960f88460031b161c191690558f8080610929565b92936020600181928786015181550195019301610913565b8281111561063057909150835f5260205f20601f840160051c90602085106109b7575b849392601f0160051c82900391015f5b8281106109a7575050610630565b5f81830155859450600101610999565b5f9150610989565b015190505f806105e5565b5f8581528281209350601f198516905b818110610a1557509084600195949392106109fd575b505050811b0190556105f9565b01515f1960f88460031b161c191690555f80806109f0565b929360206001819287860151815501950193016109da565b828111156105cf57909150835f5260205f20601f840160051c9060208510610a7e575b849392601f0160051c82900391015f5b828110610a6e5750506105cf565b5f81830155859450600101610a60565b5f9150610a50565b015190505f80610590565b5f8581528281209350601f198516905b818110610adc5750908460019594939210610ac4575b505050811b0190556105a4565b01515f1960f88460031b161c191690555f8080610ab7565b92936020600181928786015181550195019301610aa1565b8281111561057a57909150835f5260205f20601f840160051c9060208510610b45575b849392601f0160051c82900391015f5b828110610b3557505061057a565b5f81830155859450600101610b27565b5f9150610b17565b015190505f8061053b565b5f8581528281209350601f198516905b818110610ba35750908460019594939210610b8b575b505050811b01905561054f565b01515f1960f88460031b161c191690555f8080610b7e565b92936020600181928786015181550195019301610b68565b8281111561052557909150835f5260205f20601f840160051c9060208510610c0c575b849392601f0160051c82900391015f5b828110610bfc575050610525565b5f81830155859450600101610bee565b5f9150610bde565b634e487b7160e01b5f52601160045260245ffd5b631ddde97960e31b5f5260045ffd5b63017d800b60e71b5f5260045ffd5b6365e52d5160e11b5f5260045ffd5b346100f05760203660031901126100f057600435610c728161169a565b90600c8201549060ff8260081c1615610db857805f52600260205260405f2060018060a01b0333165f5260205260405f2092600284019081549360ff8516610da95760ff16600381101561081d57600114918215610d9e576008820154955b8615610d8f578315610d855754925b8315610d7657610d15600b94610d0f6020996001945f14610d6957610d0a60098801545b846114d4565b6114e7565b906114c7565b9560ff191617905501610d29838254611630565b9055610d3582336116d8565b604051908282527fe97cee5a4c0549d3fdc81e322b718ddf0aeb3418ec87dce4f9a7fb28d117c312843393a3604051908152f35b610d0a6008880154610d04565b63db24abfd60e01b5f5260045ffd5b6001015492610ce0565b633728feb360e01b5f5260045ffd5b600982015495610cd1565b630c8d9eab60e31b5f5260045ffd5b63174b639360e11b5f5260045ffd5b346100f0575f3660031901126100f057604051601b60991b8152602090f35b346100f05760203660031901126100f0576004355f526004602052602060405f2054604051908152f35b346100f05760203660031901126100f057600435610e2d8161169a565b90600c82015460ff8160081c1615610db85782546001600160a01b03163303610ec15760ff16600381101561081d57600103610eb75760088201545b610d8f57600b60209201905f82549255610e8382336116d8565b604051908282527f5a30163bd8cbc8a9b9cab51f3aef088211961d98096b2c88643af7884c4e5b2b843393a3604051908152f35b6009820154610e69565b6336e6e9b360e21b5f5260045ffd5b346100f05760403660031901126100f057600435610eec61133b565b610ef58261169a565b90600c82019182549060ff8260081c16610fc2577f00000000000000000000000000000000000000000000000000000000000000006001600160a01b03163303610fb357600401544210610fa45761ff0019166101001782557f739f283563fb51ab6b89ee95d937b2e63a6cfcb83c385dbebb629f9d97bd43e69160209160ff919015610f9a57610f8860015b8261163d565b5416610f9760405180926114ba565ba2005b610f886002610f82565b63a8a9eb6960e01b5f5260045ffd5b636e5c8b1160e11b5f5260045ffd5b630edca30d60e11b5f5260045ffd5b346100f05760203660031901126100f057600435610fee8161169a565b60ff600c82015460081c168015611184575b611175575f82815260026020908152604080832033808552925290912082549093916001600160a01b0390911614801561116e57815f52600360205260405f2054905b1561116757815f52600460205260405f2054925b8454918083111561115f5761106c9083611630565b935b6001860180549091808211156111565761108791611630565b905b61109382876114c7565b95861561114757602097600b9582611122575b505050816110fd575b5050016110bd838254611630565b90556110c982336116d8565b604051908282527f51d24dd944d36e673f7e3d129a0520e79667bfc27420db2cc5dbd09a24f61a9e843393a3604051908152f35b611108828254611630565b905561111960098301918254611630565b905585806110af565b8261112c91611630565b905561113d60088501918254611630565b90558780806110a6565b63556729af60e01b5f5260045ffd5b50505f90611089565b505f9361106e565b5f92611057565b5f90611043565b63300b4e3360e21b5f5260045ffd5b506004810154421015611000565b346100f05760206111ab6111a53661134a565b90611580565b604051908152f35b346100f0576111c136611325565b8015610c46576111d08261169a565b9160ff600c84015460081c16610fc257600483015442101561127657600b5f9382855260026020526040852060018060a01b03331686526020526001604086200161121c8582546114c7565b90556009810161122d8582546114c7565b90550161123b8382546114c7565b905561124882303361176a565b6040519182527f4af71b021e799c62c158bd54636ca8da2fa26115a21a2dc6efe486ec104fd15f60203393a4005b62b5f6bf60e41b5f5260045ffd5b346100f05760603660031901126100f05760206111ab6112a261133b565b60443590600435611505565b346100f0576112bc36611325565b8015610c46576112cb8261169a565b9160ff600c84015460081c16610fc257600483015442101561127657600b600193825f52600260205260405f20858060a01b0333165f5260205260405f206113148582546114c7565b90556008810161122d8582546114c7565b60409060031901126100f0576004359060243590565b6024359081151582036100f057565b60409060031901126100f057600435906024356001600160a01b03811681036100f05790565b9181601f840112156100f0578235916001600160401b0383116100f057602083818601950101116100f057565b90600182811c921680156113cb575b60208310146113b757565b634e487b7160e01b5f52602260045260245ffd5b91607f16916113ac565b90601f801991011681019081106001600160401b0382111761080957604052565b9060405191825f8254926114098461139d565b80845293600181169081156114745750600114611430575b5061142e925003836113d5565b565b90505f9291925260205f20905f915b81831061145857505090602061142e928201015f611421565b602091935080600191548385890101520191019091849261143f565b90506020925061142e94915060ff191682840152151560051b8201015f611421565b805180835260209291819084018484015e5f828201840152601f01601f1916010190565b90600382101561081d5752565b91908201809211610c1457565b81810292918115918404141715610c1457565b81156114f1570490565b634e487b7160e01b5f52601260045260245ffd5b6115119092919261169a565b8115801561156f575b6115685761154e92610d0a610d0f92825f1461155a5761153e8560088301546114c7565b92156115515760090154846114d4565b90565b60080154610d04565b61153e8560098301546114c7565b5050505f90565b5060ff600c82015460081c1661151a565b6115898161169a565b91600c8301549160ff8360081c1615611613575f52600260205260405f209060018060a01b03165f5260205260405f209060ff6002830154166115685760ff16600381101561081d57600114918215611625576008810154915b821561161357831561161b5754915b821561161357610d0a610d0f9261154e955f146115515760090154846114d4565b505050505f90565b60010154916115f2565b6009810154916115e3565b91908203918211610c1457565b90600381101561081d5760ff80198354169116179055565b9291926001600160401b038211610809576040519161167e601f8201601f1916602001846113d5565b8294818452818301116100f0578281602093845f960137010152565b5f548110156116b1575f52600160205260405f2090565b639db8d5b160e01b5f5260045ffd5b908160209103126100f0575180151581036100f05790565b60405163a9059cbb60e01b81526001600160a01b03909116600482015260248101919091526020816044815f601b60991b5af190811561175f575f91611730575b501561172157565b6312171d8360e31b5f5260045ffd5b611752915060203d602011611758575b61174a81836113d5565b8101906116c0565b5f611719565b503d611740565b6040513d5f823e3d90fd5b6040516323b872dd60e01b81526001600160a01b0391821660048201529116602482015260448101919091526020816064815f601b60991b5af190811561175f575f916117305750156117215756fea264697066735822122038405213897f2a6bdc9d5c03b4fc72c1d03b64d6f396171b2c9209419814fcb064736f6c63430008230033",
  "deployedBytecode": "0x",
  "linkReferences": {},
  "deployedLinkReferences": {}
}