{
  "_format": "hh-sol-artifact-1",
  "contractName": "PredictionMarket",
  "sourceName": "contracts/PredictionMarket.sol",
  "abi": [
    {
      "inputs": [],
      "name": "AlreadyClaimed",
      "type": "error"
    },
    {
      "inputs": [],
      "name": "AmountZero",
      "type": "error"
    },
    {
      "inputs": [],
      "name": "DeadlineInPast",
      "type": "error"
    },
    {
      "inputs": [],
      "name": "InvalidMarket",
      "type": "error"
    },
    {
      "inputs": [],
      "name": "InvalidProbability",
      "type": "error"
    },
    {
      "inputs": [],
      "name": "MarketClosed",
      "type": "error"
    },
    {
      "inputs": [],
      "name": "MarketNotOpen",
      "type": "error"
    },
    {
      "inputs": [],
      "name": "MarketNotResolved",
      "type": "error"
    },
    {
      "inputs": [],
      "name": "MarketResolvedAlready",
      "type": "error"
    },
    {
      "inputs": [],
      "name": "NoOpenPosition",
      "type": "error"
    },
    {
      "inputs": [],
      "name": "NoWinners",
      "type": "error"
    },
    {
      "inputs": [],
      "name": "NoWinningPosition",
      "type": "error"
    },
    {
      "inputs": [],
      "name": "NotMarketCreator",
      "type": "error"
    },
    {
      "inputs": [],
      "name": "TransferFailed",
      "type": "error"
    },
    {
      "anonymous": false,
      "inputs": [
        {
          "indexed": true,
          "internalType": "uint256",
          "name": "marketId",
          "type": "uint256"
        },
        {
          "indexed": true,
          "internalType": "address",
          "name": "user",
          "type": "address"
        },
        {
          "indexed": true,
          "internalType": "bool",
          "name": "isYes",
          "type": "bool"
        },
        {
          "indexed": false,
          "internalType": "uint256",
          "name": "amount",
          "type": "uint256"
        }
      ],
      "name": "BetPlaced",
      "type": "event"
    },
    {
      "anonymous": false,
      "inputs": [
        {
          "indexed": true,
          "internalType": "uint256",
          "name": "marketId",
          "type": "uint256"
        },
        {
          "indexed": true,
          "internalType": "address",
          "name": "creator",
          "type": "address"
        },
        {
          "indexed": false,
          "internalType": "string",
          "name": "title",
          "type": "string"
        },
        {
          "indexed": false,
          "internalType": "uint256",
          "name": "deadline",
          "type": "uint256"
        },
        {
          "indexed": false,
          "internalType": "uint256",
          "name": "aiProbability",
          "type": "uint256"
        },
        {
          "indexed": false,
          "internalType": "uint256",
          "name": "initialLiquidity",
          "type": "uint256"
        }
      ],
      "name": "MarketCreated",
      "type": "event"
    },
    {
      "anonymous": false,
      "inputs": [
        {
          "indexed": true,
          "internalType": "uint256",
          "name": "marketId",
          "type": "uint256"
        },
        {
          "indexed": false,
          "internalType": "enum PredictionMarket.Outcome",
          "name": "outcome",
          "type": "uint8"
        }
      ],
      "name": "MarketResolved",
      "type": "event"
    },
    {
      "anonymous": false,
      "inputs": [
        {
          "indexed": true,
          "internalType": "uint256",
          "name": "marketId",
          "type": "uint256"
        },
        {
          "indexed": true,
          "internalType": "address",
          "name": "creator",
          "type": "address"
        },
        {
          "indexed": false,
          "internalType": "uint256",
          "name": "amount",
          "type": "uint256"
        }
      ],
      "name": "NoWinnerPoolWithdrawn",
      "type": "event"
    },
    {
      "anonymous": false,
      "inputs": [
        {
          "indexed": true,
          "internalType": "uint256",
          "name": "marketId",
          "type": "uint256"
        },
        {
          "indexed": true,
          "internalType": "address",
          "name": "user",
          "type": "address"
        },
        {
          "indexed": false,
          "internalType": "uint256",
          "name": "payout",
          "type": "uint256"
        }
      ],
      "name": "PayoutClaimed",
      "type": "event"
    },
    {
      "anonymous": false,
      "inputs": [
        {
          "indexed": true,
          "internalType": "uint256",
          "name": "marketId",
          "type": "uint256"
        },
        {
          "indexed": true,
          "internalType": "address",
          "name": "user",
          "type": "address"
        },
        {
          "indexed": false,
          "internalType": "uint256",
          "name": "amount",
          "type": "uint256"
        }
      ],
      "name": "PositionWithdrawn",
      "type": "event"
    },
    {
      "inputs": [],
      "name": "USDC",
      "outputs": [
        {
          "internalType": "contract IERC20",
          "name": "",
          "type": "address"
        }
      ],
      "stateMutability": "view",
      "type": "function"
    },
    {
      "inputs": [
        {
          "internalType": "uint256",
          "name": "marketId",
          "type": "uint256"
        },
        {
          "internalType": "uint256",
          "name": "amount",
          "type": "uint256"
        }
      ],
      "name": "betNo",
      "outputs": [],
      "stateMutability": "nonpayable",
      "type": "function"
    },
    {
      "inputs": [
        {
          "internalType": "uint256",
          "name": "marketId",
          "type": "uint256"
        },
        {
          "internalType": "uint256",
          "name": "amount",
          "type": "uint256"
        }
      ],
      "name": "betYes",
      "outputs": [],
      "stateMutability": "nonpayable",
      "type": "function"
    },
    {
      "inputs": [
        {
          "internalType": "uint256",
          "name": "marketId",
          "type": "uint256"
        }
      ],
      "name": "claimPayout",
      "outputs": [
        {
          "internalType": "uint256",
          "name": "payout",
          "type": "uint256"
        }
      ],
      "stateMutability": "nonpayable",
      "type": "function"
    },
    {
      "inputs": [
        {
          "internalType": "string",
          "name": "title",
          "type": "string"
        },
        {
          "internalType": "string",
          "name": "description",
          "type": "string"
        },
        {
          "internalType": "string",
          "name": "resolutionCriteria",
          "type": "string"
        },
        {
          "internalType": "uint256",
          "name": "deadline",
          "type": "uint256"
        },
        {
          "internalType": "uint256",
          "name": "initialLiquidity",
          "type": "uint256"
        },
        {
          "internalType": "uint256",
          "name": "aiProbability",
          "type": "uint256"
        },
        {
          "internalType": "string",
          "name": "category",
          "type": "string"
        },
        {
          "internalType": "string",
          "name": "triggeredByNews",
          "type": "string"
        }
      ],
      "name": "createMarket",
      "outputs": [
        {
          "internalType": "uint256",
          "name": "marketId",
          "type": "uint256"
        }
      ],
      "stateMutability": "nonpayable",
      "type": "function"
    },
    {
      "inputs": [
        {
          "internalType": "uint256",
          "name": "",
          "type": "uint256"
        }
      ],
      "name": "creatorSeedNo",
      "outputs": [
        {
          "internalType": "uint256",
          "name": "",
          "type": "uint256"
        }
      ],
      "stateMutability": "view",
      "type": "function"
    },
    {
      "inputs": [
        {
          "internalType": "uint256",
          "name": "",
          "type": "uint256"
        }
      ],
      "name": "creatorSeedYes",
      "outputs": [
        {
          "internalType": "uint256",
          "name": "",
          "type": "uint256"
        }
      ],
      "stateMutability": "view",
      "type": "function"
    },
    {
      "inputs": [
        {
          "internalType": "uint256",
          "name": "marketId",
          "type": "uint256"
        },
        {
          "internalType": "address",
          "name": "user",
          "type": "address"
        }
      ],
      "name": "getPosition",
      "outputs": [
        {
          "internalType": "uint256",
          "name": "yesAmount",
          "type": "uint256"
        },
        {
          "internalType": "uint256",
          "name": "noAmount",
          "type": "uint256"
        },
        {
          "internalType": "bool",
          "name": "claimed",
          "type": "bool"
        }
      ],
      "stateMutability": "view",
      "type": "function"
    },
    {
      "inputs": [],
      "name": "marketCount",
      "outputs": [
        {
          "internalType": "uint256",
          "name": "",
          "type": "uint256"
        }
      ],
      "stateMutability": "view",
      "type": "function"
    },
    {
      "inputs": [
        {
          "internalType": "uint256",
          "name": "",
          "type": "uint256"
        }
      ],
      "name": "markets",
      "outputs": [
        {
          "internalType": "address",
          "name": "creator",
          "type": "address"
        },
        {
          "internalType": "string",
          "name": "title",
          "type": "string"
        },
        {
          "internalType": "string",
          "name": "description",
          "type": "string"
        },
        {
          "internalType": "string",
          "name": "resolutionCriteria",
          "type": "string"
        },
        {
          "internalType": "uint256",
          "name": "deadline",
          "type": "uint256"
        },
        {
          "internalType": "uint256",
          "name": "aiProbability",
          "type": "uint256"
        },
        {
          "internalType": "string",
          "name": "category",
          "type": "string"
        },
        {
          "internalType": "string",
          "name": "triggeredByNews",
          "type": "string"
        },
        {
          "internalType": "uint256",
          "name": "totalYes",
          "type": "uint256"
        },
        {
          "internalType": "uint256",
          "name": "totalNo",
          "type": "uint256"
        },
        {
          "internalType": "uint256",
          "name": "liquidity",
          "type": "uint256"
        },
        {
          "internalType": "uint256",
          "name": "pool",
          "type": "uint256"
        },
        {
          "internalType": "enum PredictionMarket.Outcome",
          "name": "outcome",
          "type": "uint8"
        },
        {
          "internalType": "bool",
          "name": "resolved",
          "type": "bool"
        }
      ],
      "stateMutability": "view",
      "type": "function"
    },
    {
      "inputs": [
        {
          "internalType": "uint256",
          "name": "",
          "type": "uint256"
        },
        {
          "internalType": "address",
          "name": "",
          "type": "address"
        }
      ],
      "name": "positions",
      "outputs": [
        {
          "internalType": "uint256",
          "name": "yesAmount",
          "type": "uint256"
        },
        {
          "internalType": "uint256",
          "name": "noAmount",
          "type": "uint256"
        },
        {
          "internalType": "bool",
          "name": "claimed",
          "type": "bool"
        }
      ],
      "stateMutability": "view",
      "type": "function"
    },
    {
      "inputs": [
        {
          "internalType": "uint256",
          "name": "marketId",
          "type": "uint256"
        },
        {
          "internalType": "bool",
          "name": "isYes",
          "type": "bool"
        },
        {
          "internalType": "uint256",
          "name": "amount",
          "type": "uint256"
        }
      ],
      "name": "quoteBetPayout",
      "outputs": [
        {
          "internalType": "uint256",
          "name": "payout",
          "type": "uint256"
        }
      ],
      "stateMutability": "view",
      "type": "function"
    },
    {
      "inputs": [
        {
          "internalType": "uint256",
          "name": "marketId",
          "type": "uint256"
        },
        {
          "internalType": "address",
          "name": "user",
          "type": "address"
        }
      ],
      "name": "quotePayout",
      "outputs": [
        {
          "internalType": "uint256",
          "name": "payout",
          "type": "uint256"
        }
      ],
      "stateMutability": "view",
      "type": "function"
    },
    {
      "inputs": [
        {
          "internalType": "uint256",
          "name": "marketId",
          "type": "uint256"
        },
        {
          "internalType": "bool",
          "name": "yesWon",
          "type": "bool"
        }
      ],
      "name": "resolveMarket",
      "outputs": [],
      "stateMutability": "nonpayable",
      "type": "function"
    },
    {
      "inputs": [
        {
          "internalType": "uint256",
          "name": "marketId",
          "type": "uint256"
        }
      ],
      "name": "withdrawNoWinnerPool",
      "outputs": [
        {
          "internalType": "uint256",
          "name": "amount",
          "type": "uint256"
        }
      ],
      "stateMutability": "nonpayable",
      "type": "function"
    },
    {
      "inputs": [
        {
          "internalType": "uint256",
          "name": "marketId",
          "type": "uint256"
        }
      ],
      "name": "withdrawPosition",
      "outputs": [
        {
          "internalType": "uint256",
          "name": "amount",
          "type": "uint256"
        }
      ],
      "stateMutability": "nonpayable",
      "type": "function"
    }
  ],
  "bytecode": "0x6080806040523461001657611853908161001c8239f35b600080fdfe608080604052600436101561001357600080fd5b60003560e01c908163174a5d32146112a55750806317f8722f1461127b57806322a18d42146111ae57806325f4647f1461118d578063525c12ea14610fc557806357bde44614610f09578063679f991414610e4557806381f3580614610e1957806389a3027114610df95780638a69614e14610c7e57806395b0c5c0146102b8578063b1283e7714610177578063d29f541d146100f2578063d56f89241461014b578063e684d718146100f25763ec979082146100cf57600080fd5b346100ed5760003660031901126100ed576020600054604051908152f35b600080fd5b346100ed5761010036611350565b60009182526002602081815260408085206001600160a01b039490941685529281529282902080546001820154919092015483519283529382015260ff909216151590820152606090f35b346100ed5760203660031901126100ed5760043560005260036020526020604060002054604051908152f35b346100ed5760203660031901126100ed5760043560005260016020526040600020600160a01b60019003815416600182016101b1906113fe565b916101be600282016113fe565b6101ca600383016113fe565b916004810154926005820154600683016101e3906113fe565b6101ef600785016113fe565b90600885015496600986015493600a87015495600b88015497600c0154986040519c8d809d6101c09182918152602001528d0161022b916114a3565b8c810360408e015261023c916114a3565b8b810360608d015261024d916114a3565b9160808b015260a08a015288810360c08a0152610269916114a3565b87810360e089015261027a916114a3565b94610100870152610120860152610140850152610160840152610180830160ff8216906102a6916114e3565b60081c60ff1615156101a08301520390f35b346100ed576101003660031901126100ed576004356001600160401b0381116100ed576102e9903690600401611376565b6024356001600160401b0381116100ed57610308903690600401611376565b9190926044356001600160401b0381116100ed5761032a903690600401611376565b60c4356001600160401b0381116100ed57610349903690600401611376565b9560e4356001600160401b0381116100ed57610369903690600401611376565b91909260843515610c6c57426064351115610c5a57606460a43511610c48576000549860018a018a11610c325760018a016000556103ae60843560011c608435611685565b9a60405197886101c08101106001600160401b036101c08b0111176107f6576104369761040261040e9361042a978c8f8f6103f8906020926101c0850160405233855236916116aa565b91015236916116aa565b60408b015236916116aa565b6060880152606435608088015260a43560a088015236916116aa565b60c085015236916116aa565b60e082015260843560011c61010082015284610120820152608435610140820152608435610160820152600061018082015260006101a082015283600052600160205260406000209060018060a01b038151166bffffffffffffffffffffffff60a01b83541617825560208101518051906001600160401b0382116107f65781906104c460018601546113a3565b601f8111610bdf575b50602090601f8311600114610b6d57600092610b62575b50508160011b916000199060031b1c19161760018301555b60408101518051906001600160401b0382116107f657819061052160028601546113a3565b601f8111610b0f575b50602090601f8311600114610a9d57600092610a92575b50508160011b916000199060031b1c19161760028301555b60608101518051906001600160401b0382116107f657819061057e60038601546113a3565b601f8111610a3f575b50602090601f83116001146109cd576000926109c2575b50508160011b916000199060031b1c19161760038301555b6080810151600483015560a0810151600583015560c08101518051906001600160401b0382116107f65781906105ef60068601546113a3565b601f811161096f575b50602090601f83116001146108fd576000926108f2575b50508160011b916000199060031b1c19161760068301555b60e08101518051906001600160401b0382116107f657819061064c60078601546113a3565b601f811161089f575b50602090601f831160011461082d57600092610822575b50508160011b916000199060031b1c19161760078301555b61010081015160088301556101208101516009830155610140810151600a830155610160810151600b830155610180810151600381101561080c57600c916106d16101a092848601611692565b0151151561ff00828401549160081b169061ff0019161791015582600052600360205260843560011c60406000205560046020528360406000205560405160608101918183106001600160401b038411176107f65760209560027f4a7d407b15f60472268a43a4f0fc258be19105b8967dd8123b49b25ade8d012893879560405260843560011c815288810192835260408101926000845286600052828a526040600020336000528a52604060002091518255516001820155019051151560ff801983541691161790556107a860843530336117cc565b83604051916080835281608084015260a0830137600060a085830101526064358682015260a4356040820152608435606082015260a0813395601f80199101168101030190a3604051908152f35b634e487b7160e01b600052604160045260246000fd5b634e487b7160e01b600052602160045260246000fd5b01519050888061066c565b9250600785016000526020600020906000935b601f1984168510610884576001945083601f1981161061086b575b505050811b016007830155610684565b015160001960f88460031b161c1916905588808061085b565b81810151835560209485019460019093019290910190610840565b909150600785016000526020600020601f840160051c8101602085106108eb575b90849392915b601f830160051c820181106108dc575050610655565b600081558594506001016108c6565b50806108c0565b01519050888061060f565b9250600685016000526020600020906000935b601f1984168510610954576001945083601f1981161061093b575b505050811b016006830155610627565b015160001960f88460031b161c1916905588808061092b565b81810151835560209485019460019093019290910190610910565b909150600685016000526020600020601f840160051c8101602085106109bb575b90849392915b601f830160051c820181106109ac5750506105f8565b60008155859450600101610996565b5080610990565b01519050888061059e565b9250600385016000526020600020906000935b601f1984168510610a24576001945083601f19811610610a0b575b505050811b0160038301556105b6565b015160001960f88460031b161c191690558880806109fb565b818101518355602094850194600190930192909101906109e0565b909150600385016000526020600020601f840160051c810160208510610a8b575b90849392915b601f830160051c82018110610a7c575050610587565b60008155859450600101610a66565b5080610a60565b015190508880610541565b9250600285016000526020600020906000935b601f1984168510610af4576001945083601f19811610610adb575b505050811b016002830155610559565b015160001960f88460031b161c19169055888080610acb565b81810151835560209485019460019093019290910190610ab0565b909150600285016000526020600020601f840160051c810160208510610b5b575b90849392915b601f830160051c82018110610b4c57505061052a565b60008155859450600101610b36565b5080610b30565b0151905088806104e4565b9250600185016000526020600020906000935b601f1984168510610bc4576001945083601f19811610610bab575b505050811b0160018301556104fc565b015160001960f88460031b161c19169055888080610b9b565b81810151835560209485019460019093019290910190610b80565b909150600185016000526020600020601f840160051c810160208510610c2b575b90849392915b601f830160051c82018110610c1c5750506104cd565b60008155859450600101610c06565b5080610c00565b634e487b7160e01b600052601160045260246000fd5b604051631ddde97960e31b8152600490fd5b60405163017d800b60e71b8152600490fd5b6040516365e52d5160e11b8152600490fd5b346100ed5760203660031901126100ed57600435610c9b816116f0565b90600c8201549060ff8260081c1615610de757806000526002602052604060002033600052602052604060002092600284019081549360ff8516610dd55760ff16600381101561080c57600114918215610dca576008820154955b8615610db8578315610dae5754925b8315610d9c57610d3b600b94610d35602099600194600014610d8f57610d3060098801545b846114fd565b611510565b906114f0565b9560ff191617905501610d4f838254611685565b9055610d5b8233611734565b604051908282527fe97cee5a4c0549d3fdc81e322b718ddf0aeb3418ec87dce4f9a7fb28d117c312843393a3604051908152f35b610d306008880154610d2a565b60405163db24abfd60e01b8152600490fd5b6001015492610d05565b604051633728feb360e01b8152600490fd5b600982015495610cf6565b604051630c8d9eab60e31b8152600490fd5b60405163174b639360e11b8152600490fd5b346100ed5760003660031901126100ed57604051601b60991b8152602090f35b346100ed5760203660031901126100ed5760043560005260046020526020604060002054604051908152f35b346100ed5760203660031901126100ed57600435610e62816116f0565b90600c82015460ff8160081c1615610de75782546001600160a01b03163303610ef75760ff16600381101561080c57600103610eed5760088201545b610db857600b6020920190600082549255610eb98233611734565b604051908282527f5a30163bd8cbc8a9b9cab51f3aef088211961d98096b2c88643af7884c4e5b2b843393a3604051908152f35b6009820154610e9e565b6040516336e6e9b360e21b8152600490fd5b346100ed5760403660031901126100ed57600435610f25611341565b610f2e826116f0565b90600c82019182549060ff8260081c16610fb357546001600160a01b03163303610ef75761ff0019166101001782557f739f283563fb51ab6b89ee95d937b2e63a6cfcb83c385dbebb629f9d97bd43e69160209160ff919015610fa957610f9760015b82611692565b5416610fa660405180926114e3565ba2005b610f976002610f91565b604051630edca30d60e11b8152600490fd5b346100ed576020806003193601126100ed57600435610fe3816116f0565b9060ff600c83015460081c16801561117f575b61116d578060005260028352604060002033600052835260406000209160018060a01b0381541633149081600014611165578260005260038552604060002054915b1561115e5782600052600485526040600020545b84549280841115611155576110619084611685565b905b60018601805490918082111561114b5761107c91611685565b915b61108883826114f0565b96871561113957600b9582611114575b505050816110ef575b5050016110af838254611685565b90556110bb8233611734565b604051908282527f51d24dd944d36e673f7e3d129a0520e79667bfc27420db2cc5dbd09a24f61a9e843393a3604051908152f35b6110fa828254611685565b905561110b60098301918254611685565b905585806110a1565b8261111e91611685565b905561112f60088501918254611685565b9055878080611098565b60405163556729af60e01b8152600490fd5b505060009161107e565b50600090611063565b600061104c565b600091611038565b60405163300b4e3360e21b8152600490fd5b506004820154421015610ff6565b346100ed5760206111a66111a036611350565b906115ad565b604051908152f35b346100ed576111bc3661132b565b8015610c6c576111cb826116f0565b9160ff600c84015460081c16610fb357600483015442101561126a57600b600093828552600260205260408520338652602052600160408620016112108582546114f0565b9055600981016112218582546114f0565b90550161122f8382546114f0565b905561123c8230336117cc565b6040519182527f4af71b021e799c62c158bd54636ca8da2fa26115a21a2dc6efe486ec104fd15f60203393a4005b60405162b5f6bf60e41b8152600490fd5b346100ed5760603660031901126100ed5760206111a6611299611341565b60443590600435611530565b346100ed576112b33661132b565b9091811561131c57506112c5826116f0565b9160ff600c84015460081c16610fb357600483015442101561126a57600b600193826000526002602052604060002033600052602052604060002061130b8582546114f0565b9055600881016112218582546114f0565b6365e52d5160e11b8152600490fd5b60409060031901126100ed576004359060243590565b6024359081151582036100ed57565b60409060031901126100ed57600435906024356001600160a01b03811681036100ed5790565b9181601f840112156100ed578235916001600160401b0383116100ed57602083818601950101116100ed57565b90600182811c921680156113d3575b60208310146113bd57565b634e487b7160e01b600052602260045260246000fd5b91607f16916113b2565b90601f801991011681019081106001600160401b038211176107f657604052565b90604051918260008254611411816113a3565b908184526020946001916001811690816000146114815750600114611442575b505050611440925003836113dd565b565b600090815285812095935091905b8183106114695750506114409350820101388080611431565b85548884018501529485019487945091830191611450565b9250505061144094925060ff191682840152151560051b820101388080611431565b919082519283825260005b8481106114cf575050826000602080949584010152601f8019910116010190565b6020818301810151848301820152016114ae565b90600382101561080c5752565b91908201809211610c3257565b81810292918115918404141715610c3257565b811561151a570490565b634e487b7160e01b600052601260045260246000fd5b61153c909291926116f0565b8115801561159c575b6115945761157a92610d30610d3592826000146115865761156a8560088301546114f0565b921561157d5760090154846114fd565b90565b60080154610d2a565b61156a8560098301546114f0565b505050600090565b5060ff600c82015460081c16611545565b906115b7826116f0565b90600c8201549060ff8260081c161561167c5760009384526002602052604084209060018060a01b03168452602052604083209060ff6002830154166116765760ff16600381101561166257600114918215611657576008810154915b821561164657831561164d5754925b83156116465761157a9450610d359291610d30911561157d5760090154846114fd565b5050505090565b6001015492611623565b600981015491611614565b634e487b7160e01b84526021600452602484fd5b50505090565b50505050600090565b91908203918211610c3257565b90600381101561080c5760ff80198354169116179055565b9291926001600160401b0382116107f657604051916116d3601f8201601f1916602001846113dd565b8294818452818301116100ed578281602093846000960137010152565b60005481101561170a576000526001602052604060002090565b604051639db8d5b160e01b8152600490fd5b908160209103126100ed575180151581036100ed5790565b60405163a9059cbb60e01b81526001600160a01b03909116600482015260248101919091526020816044816000601b60991b5af19081156117c057600091611791575b501561177f57565b6040516312171d8360e31b8152600490fd5b6117b3915060203d6020116117b9575b6117ab81836113dd565b81019061171c565b38611777565b503d6117a1565b6040513d6000823e3d90fd5b6040516323b872dd60e01b81526001600160a01b0391821660048201529116602482015260448101919091526020816064816000601b60991b5af19081156117c05760009161179157501561177f5756fea26469706673582212206edab990611a033e4234212e4b553ea9277468e9624d666aed6cf4e8667206b464736f6c63430008180033",
  "linkReferences": {},
  "deployedLinkReferences": {}
}