{
  "_format": "hh-sol-artifact-1",
  "contractName": "PredictionMarket",
  "sourceName": "contracts/PredictionMarket.sol",
  "abi": [
    {
      "inputs": [],
      "name": "AlreadyClaimed",
      "type": "error"
    },
    {
      "inputs": [],
      "name": "AmountZero",
      "type": "error"
    },
    {
      "inputs": [],
      "name": "DeadlineInPast",
      "type": "error"
    },
    {
      "inputs": [],
      "name": "InvalidMarket",
      "type": "error"
    },
    {
      "inputs": [],
      "name": "InvalidProbability",
      "type": "error"
    },
    {
      "inputs": [],
      "name": "MarketClosed",
      "type": "error"
    },
    {
      "inputs": [],
      "name": "MarketNotResolved",
      "type": "error"
    },
    {
      "inputs": [],
      "name": "MarketResolvedAlready",
      "type": "error"
    },
    {
      "inputs": [],
      "name": "NoWinners",
      "type": "error"
    },
    {
      "inputs": [],
      "name": "NoWinningPosition",
      "type": "error"
    },
    {
      "inputs": [],
      "name": "NotMarketCreator",
      "type": "error"
    },
    {
      "inputs": [],
      "name": "TransferFailed",
      "type": "error"
    },
    {
      "anonymous": false,
      "inputs": [
        {
          "indexed": true,
          "internalType": "uint256",
          "name": "marketId",
          "type": "uint256"
        },
        {
          "indexed": true,
          "internalType": "address",
          "name": "user",
          "type": "address"
        },
        {
          "indexed": true,
          "internalType": "bool",
          "name": "isYes",
          "type": "bool"
        },
        {
          "indexed": false,
          "internalType": "uint256",
          "name": "amount",
          "type": "uint256"
        }
      ],
      "name": "BetPlaced",
      "type": "event"
    },
    {
      "anonymous": false,
      "inputs": [
        {
          "indexed": true,
          "internalType": "uint256",
          "name": "marketId",
          "type": "uint256"
        },
        {
          "indexed": true,
          "internalType": "address",
          "name": "creator",
          "type": "address"
        },
        {
          "indexed": false,
          "internalType": "string",
          "name": "title",
          "type": "string"
        },
        {
          "indexed": false,
          "internalType": "uint256",
          "name": "deadline",
          "type": "uint256"
        },
        {
          "indexed": false,
          "internalType": "uint256",
          "name": "aiProbability",
          "type": "uint256"
        },
        {
          "indexed": false,
          "internalType": "uint256",
          "name": "initialLiquidity",
          "type": "uint256"
        }
      ],
      "name": "MarketCreated",
      "type": "event"
    },
    {
      "anonymous": false,
      "inputs": [
        {
          "indexed": true,
          "internalType": "uint256",
          "name": "marketId",
          "type": "uint256"
        },
        {
          "indexed": false,
          "internalType": "enum PredictionMarket.Outcome",
          "name": "outcome",
          "type": "uint8"
        }
      ],
      "name": "MarketResolved",
      "type": "event"
    },
    {
      "anonymous": false,
      "inputs": [
        {
          "indexed": true,
          "internalType": "uint256",
          "name": "marketId",
          "type": "uint256"
        },
        {
          "indexed": true,
          "internalType": "address",
          "name": "creator",
          "type": "address"
        },
        {
          "indexed": false,
          "internalType": "uint256",
          "name": "amount",
          "type": "uint256"
        }
      ],
      "name": "NoWinnerPoolWithdrawn",
      "type": "event"
    },
    {
      "anonymous": false,
      "inputs": [
        {
          "indexed": true,
          "internalType": "uint256",
          "name": "marketId",
          "type": "uint256"
        },
        {
          "indexed": true,
          "internalType": "address",
          "name": "user",
          "type": "address"
        },
        {
          "indexed": false,
          "internalType": "uint256",
          "name": "payout",
          "type": "uint256"
        }
      ],
      "name": "PayoutClaimed",
      "type": "event"
    },
    {
      "inputs": [],
      "name": "USDC",
      "outputs": [
        {
          "internalType": "contract IERC20",
          "name": "",
          "type": "address"
        }
      ],
      "stateMutability": "view",
      "type": "function"
    },
    {
      "inputs": [
        {
          "internalType": "uint256",
          "name": "marketId",
          "type": "uint256"
        },
        {
          "internalType": "uint256",
          "name": "amount",
          "type": "uint256"
        }
      ],
      "name": "betNo",
      "outputs": [],
      "stateMutability": "nonpayable",
      "type": "function"
    },
    {
      "inputs": [
        {
          "internalType": "uint256",
          "name": "marketId",
          "type": "uint256"
        },
        {
          "internalType": "uint256",
          "name": "amount",
          "type": "uint256"
        }
      ],
      "name": "betYes",
      "outputs": [],
      "stateMutability": "nonpayable",
      "type": "function"
    },
    {
      "inputs": [
        {
          "internalType": "uint256",
          "name": "marketId",
          "type": "uint256"
        }
      ],
      "name": "claimPayout",
      "outputs": [
        {
          "internalType": "uint256",
          "name": "payout",
          "type": "uint256"
        }
      ],
      "stateMutability": "nonpayable",
      "type": "function"
    },
    {
      "inputs": [
        {
          "internalType": "string",
          "name": "title",
          "type": "string"
        },
        {
          "internalType": "string",
          "name": "description",
          "type": "string"
        },
        {
          "internalType": "string",
          "name": "resolutionCriteria",
          "type": "string"
        },
        {
          "internalType": "uint256",
          "name": "deadline",
          "type": "uint256"
        },
        {
          "internalType": "uint256",
          "name": "initialLiquidity",
          "type": "uint256"
        },
        {
          "internalType": "uint256",
          "name": "aiProbability",
          "type": "uint256"
        },
        {
          "internalType": "string",
          "name": "category",
          "type": "string"
        },
        {
          "internalType": "string",
          "name": "triggeredByNews",
          "type": "string"
        }
      ],
      "name": "createMarket",
      "outputs": [
        {
          "internalType": "uint256",
          "name": "marketId",
          "type": "uint256"
        }
      ],
      "stateMutability": "nonpayable",
      "type": "function"
    },
    {
      "inputs": [
        {
          "internalType": "uint256",
          "name": "marketId",
          "type": "uint256"
        },
        {
          "internalType": "address",
          "name": "user",
          "type": "address"
        }
      ],
      "name": "getPosition",
      "outputs": [
        {
          "internalType": "uint256",
          "name": "yesAmount",
          "type": "uint256"
        },
        {
          "internalType": "uint256",
          "name": "noAmount",
          "type": "uint256"
        },
        {
          "internalType": "bool",
          "name": "claimed",
          "type": "bool"
        }
      ],
      "stateMutability": "view",
      "type": "function"
    },
    {
      "inputs": [],
      "name": "marketCount",
      "outputs": [
        {
          "internalType": "uint256",
          "name": "",
          "type": "uint256"
        }
      ],
      "stateMutability": "view",
      "type": "function"
    },
    {
      "inputs": [
        {
          "internalType": "uint256",
          "name": "",
          "type": "uint256"
        }
      ],
      "name": "markets",
      "outputs": [
        {
          "internalType": "address",
          "name": "creator",
          "type": "address"
        },
        {
          "internalType": "string",
          "name": "title",
          "type": "string"
        },
        {
          "internalType": "string",
          "name": "description",
          "type": "string"
        },
        {
          "internalType": "string",
          "name": "resolutionCriteria",
          "type": "string"
        },
        {
          "internalType": "uint256",
          "name": "deadline",
          "type": "uint256"
        },
        {
          "internalType": "uint256",
          "name": "aiProbability",
          "type": "uint256"
        },
        {
          "internalType": "string",
          "name": "category",
          "type": "string"
        },
        {
          "internalType": "string",
          "name": "triggeredByNews",
          "type": "string"
        },
        {
          "internalType": "uint256",
          "name": "totalYes",
          "type": "uint256"
        },
        {
          "internalType": "uint256",
          "name": "totalNo",
          "type": "uint256"
        },
        {
          "internalType": "uint256",
          "name": "liquidity",
          "type": "uint256"
        },
        {
          "internalType": "uint256",
          "name": "pool",
          "type": "uint256"
        },
        {
          "internalType": "enum PredictionMarket.Outcome",
          "name": "outcome",
          "type": "uint8"
        },
        {
          "internalType": "bool",
          "name": "resolved",
          "type": "bool"
        }
      ],
      "stateMutability": "view",
      "type": "function"
    },
    {
      "inputs": [
        {
          "internalType": "uint256",
          "name": "",
          "type": "uint256"
        },
        {
          "internalType": "address",
          "name": "",
          "type": "address"
        }
      ],
      "name": "positions",
      "outputs": [
        {
          "internalType": "uint256",
          "name": "yesAmount",
          "type": "uint256"
        },
        {
          "internalType": "uint256",
          "name": "noAmount",
          "type": "uint256"
        },
        {
          "internalType": "bool",
          "name": "claimed",
          "type": "bool"
        }
      ],
      "stateMutability": "view",
      "type": "function"
    },
    {
      "inputs": [
        {
          "internalType": "uint256",
          "name": "marketId",
          "type": "uint256"
        },
        {
          "internalType": "bool",
          "name": "isYes",
          "type": "bool"
        },
        {
          "internalType": "uint256",
          "name": "amount",
          "type": "uint256"
        }
      ],
      "name": "quoteBetPayout",
      "outputs": [
        {
          "internalType": "uint256",
          "name": "payout",
          "type": "uint256"
        }
      ],
      "stateMutability": "view",
      "type": "function"
    },
    {
      "inputs": [
        {
          "internalType": "uint256",
          "name": "marketId",
          "type": "uint256"
        },
        {
          "internalType": "address",
          "name": "user",
          "type": "address"
        }
      ],
      "name": "quotePayout",
      "outputs": [
        {
          "internalType": "uint256",
          "name": "payout",
          "type": "uint256"
        }
      ],
      "stateMutability": "view",
      "type": "function"
    },
    {
      "inputs": [
        {
          "internalType": "uint256",
          "name": "marketId",
          "type": "uint256"
        },
        {
          "internalType": "bool",
          "name": "yesWon",
          "type": "bool"
        }
      ],
      "name": "resolveMarket",
      "outputs": [],
      "stateMutability": "nonpayable",
      "type": "function"
    },
    {
      "inputs": [
        {
          "internalType": "uint256",
          "name": "marketId",
          "type": "uint256"
        }
      ],
      "name": "withdrawNoWinnerPool",
      "outputs": [
        {
          "internalType": "uint256",
          "name": "amount",
          "type": "uint256"
        }
      ],
      "stateMutability": "nonpayable",
      "type": "function"
    }
  ],
  "bytecode": "0x60808060405234610016576115e3908161001c8239f35b600080fdfe608080604052600436101561001357600080fd5b60003560e01c908163174a5d32146110355750806317f8722f1461100b57806322a18d4214610f3e57806325f4647f14610f1d57806357bde44614610e61578063679f991414610d9d57806389a3027114610d7d5780638a69614e14610c0257806395b0c5c01461026b578063b1283e771461012a578063d29f541d146100d1578063e684d718146100d15763ec979082146100ae57600080fd5b346100cc5760003660031901126100cc576020600054604051908152f35b600080fd5b346100cc576100df366110e0565b60009182526002602081815260408085206001600160a01b039490941685529281529282902080546001820154919092015483519283529382015260ff909216151590820152606090f35b346100cc5760203660031901126100cc5760043560005260016020526040600020600160a01b60019003815416600182016101649061118e565b916101716002820161118e565b61017d6003830161118e565b916004810154926005820154600683016101969061118e565b6101a26007850161118e565b90600885015496600986015493600a87015495600b88015497600c0154986040519c8d809d6101c09182918152602001528d016101de91611233565b8c810360408e01526101ef91611233565b8b810360608d015261020091611233565b9160808b015260a08a015288810360c08a015261021c91611233565b87810360e089015261022d91611233565b94610100870152610120860152610140850152610160840152610180830160ff82169061025991611273565b60081c60ff1615156101a08301520390f35b346100cc576101003660031901126100cc576004356001600160401b0381116100cc5761029c903690600401611106565b6024356001600160401b0381116100cc576102bb903690600401611106565b9190926044356001600160401b0381116100cc576102dd903690600401611106565b60c4356001600160401b0381116100cc576102fc903690600401611106565b9560e4356001600160401b0381116100cc5761031c903690600401611106565b91909260843515610bf057426064351115610bde57606460a43511610bcc576000549860018a018a11610bb65760018a0160005561036160843560011c60843561142d565b9a60405197886101c08101106001600160401b036101c08b011117610785576103e9976103b56103c1936103dd978c8f8f6103ab906020926101c08501604052338552369161143a565b910152369161143a565b60408b0152369161143a565b6060880152606435608088015260a43560a0880152369161143a565b60c0850152369161143a565b60e082015260843560011c61010082015284610120820152608435610140820152608435610160820152600061018082015260006101a0820152836000526001602052604060002060018060a01b038251166bffffffffffffffffffffffff60a01b82541617815560208201518051906001600160401b0382116107855781906104766001850154611133565b601f8111610b63575b50602090601f8311600114610af157600092610ae6575b50508160011b916000199060031b1c19161760018201555b60408201518051906001600160401b0382116107855781906104d36002850154611133565b601f8111610a93575b50602090601f8311600114610a2157600092610a16575b50508160011b916000199060031b1c19161760028201555b60608201518051906001600160401b0382116107855781906105306003850154611133565b601f81116109c3575b50602090601f831160011461095157600092610946575b50508160011b916000199060031b1c19161760038201555b6080820151600482015560a0820151600582015560c08201518051906001600160401b0382116107855781906105a16006850154611133565b601f81116108f3575b50602090601f831160011461088157600092610876575b50508160011b916000199060031b1c19161760068201555b60e08201518051906001600160401b038211610785576105fc6007840154611133565b601f811161082f575b50602090601f83116001146107bc57600c939291600091836107b1575b50508160011b916000199060031b1c19161760078201555b61010083015160088201556101208301516009820155610140830151600a820155610160830151600b820155019061018081015190600382101561079b576106856101a09284611415565b0151815461ff00191690151560081b61ff001617905560405160608101916001600160401b038311828410176107855760209560027f4a7d407b15f60472268a43a4f0fc258be19105b8967dd8123b49b25ade8d012893879560405260843560011c815288810192835260408101926000845286600052828a526040600020336000528a52604060002091518255516001820155019051151560ff80198354169116179055610737608435303361155c565b83604051916080835281608084015260a0830137600060a085830101526064358682015260a4356040820152608435606082015260a0813395601f80199101168101030190a3604051908152f35b634e487b7160e01b600052604160045260246000fd5b634e487b7160e01b600052602160045260246000fd5b015190508980610622565b906007840160005260206000209160005b601f19851681106108175750918391600193600c9695601f198116106107fe575b505050811b01600782015561063a565b015160001960f88460031b161c191690558980806107ee565b919260206001819286850151815501940192016107cd565b600784016000526020600020601f840160051c81016020851061086f575b601f830160051c82018110610863575050610605565b6000815560010161084d565b508061084d565b0151905088806105c1565b9250600684016000526020600020906000935b601f19841685106108d8576001945083601f198116106108bf575b505050811b0160068201556105d9565b015160001960f88460031b161c191690558880806108af565b81810151835560209485019460019093019290910190610894565b909150600684016000526020600020601f840160051c81016020851061093f575b90849392915b601f830160051c820181106109305750506105aa565b6000815585945060010161091a565b5080610914565b015190508880610550565b9250600384016000526020600020906000935b601f19841685106109a8576001945083601f1981161061098f575b505050811b016003820155610568565b015160001960f88460031b161c1916905588808061097f565b81810151835560209485019460019093019290910190610964565b909150600384016000526020600020601f840160051c810160208510610a0f575b90849392915b601f830160051c82018110610a00575050610539565b600081558594506001016109ea565b50806109e4565b0151905088806104f3565b9250600284016000526020600020906000935b601f1984168510610a78576001945083601f19811610610a5f575b505050811b01600282015561050b565b015160001960f88460031b161c19169055888080610a4f565b81810151835560209485019460019093019290910190610a34565b909150600284016000526020600020601f840160051c810160208510610adf575b90849392915b601f830160051c82018110610ad05750506104dc565b60008155859450600101610aba565b5080610ab4565b015190508880610496565b9250600184016000526020600020906000935b601f1984168510610b48576001945083601f19811610610b2f575b505050811b0160018201556104ae565b015160001960f88460031b161c19169055888080610b1f565b81810151835560209485019460019093019290910190610b04565b909150600184016000526020600020601f840160051c810160208510610baf575b90849392915b601f830160051c82018110610ba057505061047f565b60008155859450600101610b8a565b5080610b84565b634e487b7160e01b600052601160045260246000fd5b604051631ddde97960e31b8152600490fd5b60405163017d800b60e71b8152600490fd5b6040516365e52d5160e11b8152600490fd5b346100cc5760203660031901126100cc57600435610c1f81611480565b90600c8201549060ff8260081c1615610d6b57806000526002602052604060002033600052602052604060002092600284019081549360ff8516610d595760ff16600381101561079b57600114918215610d4e576008820154955b8615610d3c578315610d325754925b8315610d2057610cbf600b94610cb9602099600194600014610d1357610cb460098801545b8461128d565b6112a0565b90611280565b9560ff191617905501610cd383825461142d565b9055610cdf82336114c4565b604051908282527fe97cee5a4c0549d3fdc81e322b718ddf0aeb3418ec87dce4f9a7fb28d117c312843393a3604051908152f35b610cb46008880154610cae565b60405163db24abfd60e01b8152600490fd5b6001015492610c89565b604051633728feb360e01b8152600490fd5b600982015495610c7a565b604051630c8d9eab60e31b8152600490fd5b60405163174b639360e11b8152600490fd5b346100cc5760003660031901126100cc57604051601b60991b8152602090f35b346100cc5760203660031901126100cc57600435610dba81611480565b90600c82015460ff8160081c1615610d6b5782546001600160a01b03163303610e4f5760ff16600381101561079b57600103610e455760088201545b610d3c57600b6020920190600082549255610e1182336114c4565b604051908282527f5a30163bd8cbc8a9b9cab51f3aef088211961d98096b2c88643af7884c4e5b2b843393a3604051908152f35b6009820154610df6565b6040516336e6e9b360e21b8152600490fd5b346100cc5760403660031901126100cc57600435610e7d6110d1565b610e8682611480565b90600c82019182549060ff8260081c16610f0b57546001600160a01b03163303610e4f5761ff0019166101001782557f739f283563fb51ab6b89ee95d937b2e63a6cfcb83c385dbebb629f9d97bd43e69160209160ff919015610f0157610eef60015b82611415565b5416610efe6040518092611273565ba2005b610eef6002610ee9565b604051630edca30d60e11b8152600490fd5b346100cc576020610f36610f30366110e0565b9061133d565b604051908152f35b346100cc57610f4c366110bb565b8015610bf057610f5b82611480565b9160ff600c84015460081c16610f0b576004830154421015610ffa57600b60009382855260026020526040852033865260205260016040862001610fa0858254611280565b905560098101610fb1858254611280565b905501610fbf838254611280565b9055610fcc82303361155c565b6040519182527f4af71b021e799c62c158bd54636ca8da2fa26115a21a2dc6efe486ec104fd15f60203393a4005b60405162b5f6bf60e41b8152600490fd5b346100cc5760603660031901126100cc576020610f366110296110d1565b604435906004356112c0565b346100cc57611043366110bb565b909181156110ac575061105582611480565b9160ff600c84015460081c16610f0b576004830154421015610ffa57600b600193826000526002602052604060002033600052602052604060002061109b858254611280565b905560088101610fb1858254611280565b6365e52d5160e11b8152600490fd5b60409060031901126100cc576004359060243590565b6024359081151582036100cc57565b60409060031901126100cc57600435906024356001600160a01b03811681036100cc5790565b9181601f840112156100cc578235916001600160401b0383116100cc57602083818601950101116100cc57565b90600182811c92168015611163575b602083101461114d57565b634e487b7160e01b600052602260045260246000fd5b91607f1691611142565b90601f801991011681019081106001600160401b0382111761078557604052565b906040519182600082546111a181611133565b9081845260209460019160018116908160001461121157506001146111d2575b5050506111d09250038361116d565b565b600090815285812095935091905b8183106111f95750506111d093508201013880806111c1565b855488840185015294850194879450918301916111e0565b925050506111d094925060ff191682840152151560051b8201013880806111c1565b919082519283825260005b84811061125f575050826000602080949584010152601f8019910116010190565b60208183018101518483018201520161123e565b90600382101561079b5752565b91908201809211610bb657565b81810292918115918404141715610bb657565b81156112aa570490565b634e487b7160e01b600052601260045260246000fd5b6112cc90929192611480565b8115801561132c575b6113245761130a92610cb4610cb99282600014611316576112fa856008830154611280565b921561130d57600901548461128d565b90565b60080154610cae565b6112fa856009830154611280565b505050600090565b5060ff600c82015460081c166112d5565b9061134782611480565b90600c8201549060ff8260081c161561140c5760009384526002602052604084209060018060a01b03168452602052604083209060ff6002830154166114065760ff1660038110156113f2576001149182156113e7576008810154915b82156113d65783156113dd5754925b83156113d65761130a9450610cb99291610cb4911561130d57600901548461128d565b5050505090565b60010154926113b3565b6009810154916113a4565b634e487b7160e01b84526021600452602484fd5b50505090565b50505050600090565b90600381101561079b5760ff80198354169116179055565b91908203918211610bb657565b9291926001600160401b0382116107855760405191611463601f8201601f19166020018461116d565b8294818452818301116100cc578281602093846000960137010152565b60005481101561149a576000526001602052604060002090565b604051639db8d5b160e01b8152600490fd5b908160209103126100cc575180151581036100cc5790565b60405163a9059cbb60e01b81526001600160a01b03909116600482015260248101919091526020816044816000601b60991b5af190811561155057600091611521575b501561150f57565b6040516312171d8360e31b8152600490fd5b611543915060203d602011611549575b61153b818361116d565b8101906114ac565b38611507565b503d611531565b6040513d6000823e3d90fd5b6040516323b872dd60e01b81526001600160a01b0391821660048201529116602482015260448101919091526020816064816000601b60991b5af19081156115505760009161152157501561150f5756fea26469706673582212201ca72b9e61a7a6fda20327679e937116df3f1839d2f18cf63aa8b4c2aec7054364736f6c63430008180033",
  "linkReferences": {},
  "deployedLinkReferences": {}
}